:100000000C945E000C9486000C9486000C94860080
:100010000C9486000C9486000C9486000C94860048
:100020000C9486000C9486000C9486000C94860038
:100030000C9486000C9486000C9486000C94860028
:100040000C94E8070C9486000C94B6070C94900767
:100050000C9486000C9486000C9486000C94860008
:100060000C9486000C948600000000080002010039
:100070000003040700000000000000000000000072
:10008000250028002B0000000000240027002A0083
:10009000040404040404040402020202020203032E
:1000A0000303030301020408102040800102040836
:1000B00010200102040810203208250C11241FBE54
:1000C000CFEFD8E0DEBFCDBF11E0A0E0B1E0E4E1CA
:1000D000F8E202C005900D92AE37B107D9F722E0E1
:1000E000AEE7B1E001C01D92AE37B207E1F710E014
:1000F000CDE5D0E004C02197FE010E944E0FCC3523
:10010000D107C9F70E94AF080C94FD130C940000AE
:1001100090E0FC01EC55FF4F249180579F4FFC016C
:100120008491882399F090E0880F991FFC01EA5789
:10013000FF4FA591B491FC01E458FF4F8591949134
:100140008FB7F894EC91E22BEC938FBF089508954C
:10015000DB0114964D915C9115976D917C91DC01BA
:10016000ED91FC910280F381E02D0994AF92BF9252
:10017000CF92DF92EF92FF920F931F93CF93DF9373
:100180006C017B018B01040F151FEB015E01AE18A2
:10019000BF08C017D10759F06991D601ED91FC91C4
:1001A0000190F081E02DC6010995892B79F7C501F1
:1001B000DF91CF911F910F91FF90EF90DF90CF9043
:1001C000BF90AF900895FC01538D448D252F30E0F2
:1001D000842F90E0821B930B541710F0CF96089554
:1001E00001970895FC01918D828D981761F0A28D81
:1001F000AE0FBF2FB11D5D968C91928D9F5F9F7347
:10020000928F90E008958FEF9FEF0895FC01918DFC
:10021000828D981731F0828DE80FF11D858D90E069
:1002200008958FEF9FEF0895FC01918D228D892F06
:1002300090E0805C9F4F821B91098F7399270895EE
:1002400086E991E00E94140121E0892B09F420E065
:10025000822F0895FC01A48DA80FB92FB11DA35AB8
:10026000BF4F2C91848D90E001968F739927848FD6
:10027000A689B7892C93A089B1898C9183708064F9
:100280008C93938D848D981306C00288F389E02D9A
:1002900080818F7D80830895EF92FF920F931F934B
:1002A000CF93DF93EC0181E0888F9B8D8C8D981329
:1002B0001AC0E889F989808185FF15C09FB7F89435
:1002C000EE89FF896083E889F98980818370806481
:1002D00080839FBF81E090E0DF91CF911F910F91CC
:1002E000FF90EF900895F62E0B8D10E00F5F1F4FDB
:1002F0000F731127E02E8C8D8E110CC00FB607FCEA
:10030000FACFE889F989808185FFF5CFCE010E9477
:100310002A01F1CFEB8DEC0FFD2FF11DE35AFF4FBA
:10032000F0829FB7F8940B8FEA89FB898081806205
:10033000CFCFCF93DF93EC01888D8823B9F0AA89C2
:10034000BB89E889F9898C9185FD03C0808186FD90
:100350000DC00FB607FCF7CF8C9185FFF2CF8081DF
:1003600085FFEDCFCE010E942A01E9CFDF91CF9129
:10037000089590E0FC01E859FF4F2491FC01EC55F1
:10038000FF4F3491FC01E057FF4FE491EE23C9F099
:10039000222339F0233001F1A8F4213019F1223061
:1003A00029F1F0E0EE0FFF1FE458FF4FA591B49143
:1003B0008FB7F894EC91611126C030953E233C93A1
:1003C0008FBF08952730A9F02830C9F0243049F7AD
:1003D000809180008F7D03C0809180008F77809313
:1003E0008000DFCF84B58F7784BDDBCF84B58F7D70
:1003F000FBCF8091B0008F778093B000D2CF8091F7
:10040000B0008F7DF9CF3E2BDACF2FB7F8946091F3
:100410008701709188018091890190918A012FBF95
:10042000089590E080E00895CF93DF93EC0160E0C1
:100430008E810E94B90161E08E810E94B90160E065
:100440008E810E94B9018BE891E00197F1F7DF916D
:10045000CF910895CF92DF92EF92FF920F931F9367
:10046000CF93DF936C017C0187E0E80EF11CD0E0B4
:10047000C0E0062F10E0B8010C2E02C075956795FC
:100480000A94E2F76170F70181917F010E94B9013E
:100490002196C430D10579F7C601DF91CF911F9124
:1004A0000F91FF90EF90DF90CF900C941402CF92B9
:1004B000DF92EF92FF920F931F93CF93DF93EC01A4
:1004C000F62E642F8C810E94B9018D818F3F19F027
:1004D00060E00E94B9010F2D10E08F8584FF25C0D8
:1004E0006E0187E0C80ED11CF12CE12CB8010E2C56
:1004F00002C0759567950A94E2F76170F6018191E3
:100500006F010E94B901FFEFEF1AFF0A88E0E816B9
:10051000F10461F7CE01DF91CF911F910F91FF9010
:10052000EF90DF90CF900C941402B80184E07595A1
:1005300067958A95E1F7CE010E942A026F2DCE01C0
:10054000DF91CF911F910F91FF90EF90DF90CF90AF
:100550000C942A0240E0682F89E392E00C94570241
:1005600081E00E94AA028BE39FE10197F1F70895D1
:10057000CF93DF93823029F4909148029860909352
:10058000480280934C0210924D0280E480934E0208
:1005900080E180934F0280E58093500280913D027C
:1005A0000E94880080913E028F3F11F00E948800D7
:1005B00080913F020E948800C9E3D2E09E01295346
:1005C00032408091480284FD0AC084E090E0219688
:1005D000281739073CF48E810E948800EFCF88E00D
:1005E00090E0F5CF8BE39DE00197F1F760E080911B
:1005F0003D020E94B90160E080913F020E94B90172
:1006000080913E028F3F19F060E00E94B901809115
:10061000480284FD34C063E089E392E00E942A022C
:10062000CBE4D6E4CE010197F1F763E089E392E0F1
:100630000E942A022197F1F763E089E392E00E9489
:100640002A0283E592E00197F1F762E089E392E004
:100650000E942A028091480280620E94AA0284E0DD
:10066000809349028CE00E94AA020E94B00282E0BC
:1006700080934A0286E0DF91CF910C94AA028062B7
:100680000E94AA028BE496E40197F1F78091480258
:1006900080620E94AA0283E592E00197F1F78091BF
:1006A000480280620E94AA02D5CFCF93DF93EC016B
:1006B0000E94B002E1E080914C028111E0E0E195FE
:1006C000F0E0E75CFD4F848980680E94AA02BE01C9
:1006D00089E392E0DF91CF910C94A80041E00E9461
:1006E000570281E090E00895CF93DF93EC01A88159
:1006F000B981EB01E881F9811097F1F03097B1F4FD
:10070000EC018C819D81892BC9F08C9190E00BC00C
:10071000DB0114968D919C91892B81F0808190E072
:10072000919581959109DF91CF910895BF01CD01F8
:10073000DF91CF910C943F11309751F790E080E01A
:10074000F2CFCF93DF93EC0188819981009711F06C
:100750000E94F00F198218821D821C821B821A824D
:10076000DF91CF910895FC0180819181009711F074
:100770000C94F00F08950F931F93CF93DF93EC0128
:1007800088819981009759F02A813B812617370784
:1007900030F081E0DF91CF911F910F9108958B018F
:1007A0006F5F7F4F0E947910009759F0998388837B
:1007B0001B830A832C813D81232B59F7FC01108276
:1007C000E8CF80E0E7CFEF92FF920F931F93CF9394
:1007D000DF936115710541F480E0DF91CF911F91A6
:1007E0000F91FF90EF90089541155105B1F07B01F5
:1007F000EC010C811D81040F151FB8010E94BB0381
:10080000882351F3288139818C819D81B701820F22
:10081000931F0E9448111D830C8381E0DECFCF938C
:10082000DF93EC01FB0101900020E9F73197AF0164
:10083000461B570B0E94E303811103C0CE010E94A7
:10084000A103CE01DF91CF910895CF93DF93EC0107
:10085000FB0144815581608171810E94E303811114
:1008600003C0CE010E94A103CE01DF91CF91089574
:10087000CF93DF9300D0CDB7DEB769831A8241E012
:1008800050E0BE016F5F7F4F0E94E3030F900F9017
:10089000DF91CF910895EF92FF920F931F93CF9323
:1008A000DF93EC017B018A01BA010E94BB03811135
:1008B0000BC0CE010E94A103CE01DF91CF911F9109
:1008C0000F91FF90EF9008951D830C83B7018881ED
:1008D00099810E944811F0CFFB0101900020E9F7B7
:1008E0003197AF01461B570B0C944B040F931F938A
:1008F000CF93DF93CDB7DEB7A1970FB6F894DEBFE5
:100900000FBECDBF8C01CB01BA01F801118210825C
:1009100013821282158214822AE0AE014F5F5F4F6C
:100920000E94550EBE016F5F7F4FC8010E946C048C
:10093000A1960FB6F894DEBF0FBECDBFDF91CF9169
:100940001F910F9108950F931F93CF93DF93CDB70E
:10095000DEB762970FB6F894DEBF0FBECDBF8C0135
:10096000CB01F80111821082138212821582148247
:100970004AE0BE016F5F7F4F0E944A0EBE016F5F6B
:100980007F4FC8010E946C0462960FB6F894DEBFD8
:100990000FBECDBFDF91CF911F910F910895CF93DF
:1009A000DF93EC01FB018617970749F060817181A5
:1009B0006115710541F0448155810E944B04CE01BF
:1009C000DF91CF9108950E94A103F9CFFC0111821C
:1009D000108213821282158214820C94CF04CF935A
:1009E000DF93EC010E94E604CE01DF91CF910895E0
:1009F000AF92BF92CF92DF92EF92FF920F931F932D
:100A0000CF93DF93CDB7DEB72E970FB6F894DEBF46
:100A10000FBECDBF8C016B018091520290915302A9
:100A2000D80112969C938E931197D8011196ED914F
:100A3000FC9180915402909155028E179F0779F195
:100A4000A0905902B0905A02E480F580B701CE011F
:100A500001960E94E604F7018681978198878F832B
:100A6000BE016F5F7F4FCE010996F5010995B60172
:100A7000CE0109960E9474037C01CE0109960E9462
:100A8000B303CE0101960E94B303F7FE08C0D8015C
:100A90001196ED91FC91129782819381C2CFC8018A
:100AA0002E960FB6F894DEBF0FBECDBFDF91CF916B
:100AB0001F910F91FF90EF90DF90CF90BF90AF907C
:100AC0000895EF92FF920F931F93CF93DF93EC0162
:100AD0007B01198218821B821A821D821C8288E087
:100AE00090E00E94540F8C01B7010E94E604F701C8
:100AF00086819781F801978386831D830C83DF911C
:100B0000CF911F910F91FF90EF9008950F931F9336
:100B1000CF93DF9300D000D000D0CDB7DEB78C01EB
:100B20006CE672E0CE0101960E94E604B801CE01A7
:100B300001960E94250468E271E00E940F04BC0146
:100B40008CE692E00E94CF04CE0101960E94B3038E
:100B500026960FB6F894DEBF0FBECDBFDF91CF91C2
:100B60001F910F910895FC0111821082138212824D
:100B700015821482FB0101900020E9F73197AF0143
:100B8000461B570B0C944B040F931F93CF93DF938B
:100B9000CDB7DEB762970FB6F894DEBF0FBECDBFFC
:100BA00080919101882309F489C00E940502009177
:100BB0008B0110918C0120918D0130918E01AB0140
:100BC000BC01401B510B620B730B4093920150937D
:100BD0009301609394017093950180918F0190919E
:100BE000900140365A4E6105710508F072C00196B9
:100BF0009093900180938F010E94D20C25E73AE4F4
:100C00004DE555E00E94D60E6058794687469F4FC5
:100C100060937E0170937F018093800190938101A6
:100C20008091920190919301A0919401B0919501CE
:100C300040E65AEE60E070E0481B590B6A0B7B0BF4
:100C4000CE0101960E947604CE0101960E945503C2
:100C5000CE0101960E94B30340917E0150917F0125
:100C60006091800170918101CE0107960E94760407
:100C70006AE271E0CE0101960E94B305BE01695F90
:100C80007F4FCE0101960E94250462E471E00E942C
:100C90000F04BC01CE010D960E94E604CE010D9614
:100CA0000E948605CE010D960E94B303CE010196E7
:100CB0000E94B303CE0107960E94B30362960FB65B
:100CC000F894DEBF0FBECDBFDF91CF911F910F9182
:100CD000089510929101BC01CE0107960E94A304D1
:100CE00062E371E0CE0101960E94B305BE01695F27
:100CF0007F4FCE0101960E942504BC01CE010D96C6
:100D00000E94E604CE010D960E945503CE010D9679
:100D10000E94B303CE0101960E94B303CE01079651
:100D20000E94B30360918F0170919001CE010796EC
:100D30000E94A30467E371E09DCFCF92DF92EF9210
:100D4000FF92CF93C1E086E991E00E941401892BC4
:100D500009F4DAC080915B0290915C02892B09F062
:100D600047C00E94050260937202709373028093E1
:100D700074029093750261E371E080E692E00E9454
:100D80006C0486E991E00E94F200682F80915B027A
:100D900090915C029C012F5F3F4F30935C02209347
:100DA0005B028330910508F0A9C041E0663609F482
:100DB00040E02430310511F4653619F4442309F478
:100DC0004EC010925C0210925B0210925E02109272
:100DD0005D0261E371E080E692E00E946C0461E3F1
:100DE00071E086E692E00E946C0410925F02ABCF45
:100DF000C0907202D0907302E0907402F09075027D
:100E00008CE2C80E81E0D81EE11CF11C0E94050294
:100E1000C616D706E806F90608F0B3CF61E371E01D
:100E200086E692E00E946C0410925C0210925B02D3
:100E300010925E0210925D0261E371E080E692E042
:100E40000E946C0410925F020E940502609372027D
:100E500070937302809374029093750292CF0497FB
:100E6000029720F510925F0286E692E00E94380415
:100E700080915B0290915C02069709F064CF40E19B
:100E800050E070E060E080916602909167020E94FD
:100E90002A0D6A5F7F4F70935E0260935D0261E38B
:100EA00071E086E692E00E946C044DCF2730310558
:100EB00008F449CF80915D0290915E0228173907AE
:100EC00038F410925F0280E692E00E9438043BCF33
:100ED00090935C0280935B02892B09F434CF80E607
:100EE00092E00E94380410925C0210925B02109211
:100EF0005E0210925D02C0935F0225CF243031055F
:100F000009F0ADCF40E058CFCF91FF90EF90DF9048
:100F1000CF9008950E94200181110C949D060895A0
:100F20001F920F920FB60F9211242F933F934F935E
:100F30005F936F937F938F939F93AF93BF93EF9341
:100F4000FF9386E991E00E942A01FF91EF91BF9102
:100F5000AF919F918F917F916F915F914F913F9151
:100F60002F910F900FBE0F901F9018951F920F9208
:100F70000FB60F9211242F938F939F93EF93FF93AC
:100F8000E091A601F091A7018081E091AC01F09180
:100F9000AD0182FD1BC090818091AF018F5F8F7387
:100FA0002091B001821741F0E091AF01F0E0EA56E4
:100FB000FE4F958F8093AF01FF91EF919F918F919D
:100FC0002F910F900FBE0F901F9018958081F4CF36
:100FD0001F920F920FB60F9211242F933F938F936E
:100FE0009F93AF93BF938091870190918801A091C7
:100FF0008901B0918A013091860123E0230F2D37BA
:1010000058F50196A11DB11D20938601809387019B
:1010100090938801A0938901B0938A018091820105
:1010200090918301A0918401B09185010196A11D49
:10103000B11D8093820190938301A0938401B093AA
:101040008501BF91AF919F918F913F912F910F900B
:101050000FBE0F901F90189526E8230F0296A11D32
:10106000B11DD2CFCF93DF93E6E9F1E01382128274
:1010700088EE93E0A0E0B0E084839583A683B783F5
:101080008EE091E09183808385EC90E09587848762
:1010900084EC90E09787868780EC90E0918B808B42
:1010A00081EC90E0938B828B82EC90E0958B848B2B
:1010B00086EC90E0978B868B118E128E138E148E99
:1010C000C1E5D2E01E821D8286E090E00E94540FAE
:1010D000FC011182108213821282158214829A837B
:1010E00089839C838B838FEE94E09987888761E363
:1010F00071E080E692E00E94B30561E371E086E66C
:1011000092E00E94B30561E371E08CE692E00E94F8
:10111000B305E9E3F2E01382128280E291E0918369
:1011200080838BE084838FEF85838AE0868385E0EC
:10113000878384E0808783E0818782E082871386CB
:10114000148615861686178681E00E94B80261E330
:1011500071E083E392E0DF91CF910C94B305CF93DC
:10116000DF93CDB7DEB7E0970FB6F894DEBF0FBEC2
:10117000CDBF789484B5826084BD84B5816084BD20
:1011800085B5826085BD85B5816085BD80916E0025
:10119000816080936E001092810080918100826056
:1011A0008093810080918100816080938100809193
:1011B00080008160809380008091B1008460809382
:1011C000B1008091B00081608093B00080917A007E
:1011D000846080937A0080917A00826080937A00A4
:1011E00080917A00816080937A0080917A00806893
:1011F00080937A001092C1008CE00E94880061E028
:101200008CE00E94B90182E00E94B8026FE371E0B5
:10121000CE0101960E94B30564E471E0CE01099607
:101220000E94B3050E94B002E1E080914C0281115E
:10123000E0E0E195F0E0E75CFD4F848980680E9482
:10124000AA02BE01675F7F4F89E392E00E94A80077
:10125000E0914C02E23008F0D8C1E150F0E0E75CE8
:10126000FD4F848980680E94AA02BE016F5F7F4F94
:1012700089E392E00E94A800CE0109960E94B30380
:10128000CE0101960E94B30384EC95E0909377021F
:10129000809376026FEF70E080E692E00E94BB03DD
:1012A00061E371E086E692E00E946C0461E371E024
:1012B00080E692E00E946C0461E371E08CE692E0CB
:1012C0000E946C0410925F0210925E0210925D0206
:1012D00010925C0210925B021092720210927302E2
:1012E0001092740210927502E091A601F091A7018C
:1012F00082E08083E091A201F091A3011082E0914D
:10130000A401F091A5018FEC80831092AE01E091D1
:10131000AA01F091AB0186E08083E091A801F091F1
:10132000A901808180618083E091A801F091A901E9
:10133000808188608083E091A801F091A90180817B
:1013400080688083E091A801F091A90180818F7D60
:10135000808333E7C32E31E0D32E8E01075E1F4F0B
:1013600080E4582E7724739493E0692EAA24A394E2
:10137000B12C50927C0080917A00806480937A0036
:1013800080917A00282F2074F22E86FDF9CF90915B
:1013900078008091790089279827892762E571E094
:1013A0008E3E924014F066E571E0CE0101960E94F7
:1013B000B3058091330290913402009709F429C15A
:1013C00069817A816115710509F421C14091350265
:1013D000509136022D813E814217530708F417C100
:1013E0000E9448118D819E8190933802809337022C
:1013F0001E821D82CE0101960E94B30380913702A6
:1014000090913802892B61F066E571E0809133029A
:10141000909134020E943F11EE24E394892B09F04D
:10142000E12C0E940502AB01BC01809192019091D8
:101430009301A0919401B09195018C509E4FAF4FB4
:10144000BF4F84179507A607B707D0F5E714C1F17A
:101450000E9405026093920170939301809394011E
:10146000909395018091370290913802892B41F138
:1014700062E571E080913302909134020E943F1145
:10148000892BF1F4709291011092900110928F01CA
:101490006BE571E0CE0101960E94B305CE01019685
:1014A0000E945503CE0101960E94B3030E940502DB
:1014B00060938B0170938C0180938D0190938E01CA
:1014C00080915F0210925F02882309F403C160E6F5
:1014D00072E0CE0101960E94E6048D819E81892BE7
:1014E00059F067E671E089819A810E943F11FF24DB
:1014F000F394892B09F0F12CCE0101960E94B303DD
:10150000F1109EC060E672E0CE0185960E94E6046E
:10151000BE016B5D7F4FCE018E960E94F804EFA551
:10152000F8A980915402909155028E179F0709F0F7
:10153000D9C0BE016B5D7F4FCE0141960E94E6048B
:10154000188E1F8AE0905902F0905A02BE016F5E19
:101550007F4FCE0101960E94E6048F89988D98876F
:101560008F83BE016F5F7F4FCE010996F70109950A
:10157000BE01675F7F4FCE018B960E94F804CE01BB
:1015800009960E94B303CE0101960E94B303ECA515
:10159000FDA580915402909155028E179F0709F086
:1015A000E1C08091560290915702892B09F0B0C09A
:1015B00086E090E00E94540F7C01BE016F5E7F4F79
:1015C0000E946105F0925302E0925202E0915402AF
:1015D000F0915502F182E082D70111961C921E9281
:1015E0001396FC93EE931297B0925702A092560274
:1015F000E0915402F09155028080918098AA8FA6C4
:10160000CE0141960E94B30375C0E1E027CE0E944F
:10161000F00F89819A8190933402809333028B81F9
:101620009C8190933602809335028D819E819093A8
:101630003802809337021A8219821C821B82D8CE0C
:10164000E0917602F091770209956CE672E0CE01A6
:1016500041960E94E6048E898F938D898F93DF9245
:10166000CF921F926F921F930F930E944F11B80158
:10167000CE0109960E94B30568E771E0CE0101969C
:101680000E94B305BE01675F7F4FCE0101960E94A5
:101690002504BE016F5E7F4F0E942504BC0186E9D0
:1016A00091E00E94A800CE0101960E94B303CE01F2
:1016B00009960E94B303CE0141960E94B30361E3F1
:1016C00071E08CE692E00E946C040FB6F894DEBFE5
:1016D0000FBECDBF0E942001882309F44ACE0E948C
:1016E0009D063ECE64817581CE0185960E9474036D
:1016F00097FD1FCFEFA5F8A90480F581E02D0680A6
:10170000F781E02D0995CE0185960E94B303E2CFC3
:1017100086E090E00E94540F7C01BE016F5E7F4F17
:101720000E946105E0915402F091550280819181FF
:10173000D70111969C938E931396FC93EE93129778
:10174000A081B1811396FC92EE921297F182E08211
:101750008091560290915702019690935702809380
:10176000560246CF8090590290905A02E480F5804C
:10177000B701CE0109960E94E604F70186819781A0
:10178000988B8F87BE01675F7F4FCE014F96F40124
:101790000995E0905902F0905A02BE016F5E7F4FAA
:1017A000CE0101960E94E6048F89988D98878F83D9
:1017B000BE016F5F7F4FC801F7010995BE01615EF1
:1017C0007F4FC8010E9474034C01C8010E94B303FB
:1017D000CE0101960E94B303CE014F960E94B3033F
:1017E000CE0109960E94B303ECA4FDA497FE2BC082
:1017F00086E090E00E94540F4C01BE016F5E7F4F67
:101800000E946105D7018D919C911197F4019183FC
:101810008083F382E282892B89F490925302809232
:101820005202F70191828082809156029091570274
:1018300001969093570280935602E0CEED91FC9171
:1018400093828282EECF4701D9CECF93DF9383E399
:1018500092E00E94B3038CE692E00E94B30386E616
:1018600092E00E94B30380E692E00E94B303E0910D
:101870005202F09153028091560290915702892BA7
:1018800071F10280F381E02DF0935302E093520254
:101890000190F081E02DC481D581209731F0CE01F7
:1018A0000E94B303CE010E94F00FE0915202F0912A
:1018B000530280819181009711F00E94F00FE09116
:1018C0005202F0915302118210828091560290913F
:1018D000570201979093570280935602C8CFC48154
:1018E000D581209731F0CE010E94B303CE010E9432
:1018F000F00F8091520290915302009721F0DF91F6
:10190000CF910C94F00FDF91CF9108958F929F9219
:10191000AF92BF92CF92DF92EF92FF92CF93DF937D
:10192000EC01688179818A819B816115710581054E
:10193000910521F464E279ED8BE597E02DE133EF39
:1019400041E050E00E94D60E49015A019B01AC01D2
:10195000A7EAB1E40E94F50E6B017C01ACEEB4EF96
:10196000A50194010E94030FC60ED71EE81EF91EA2
:10197000F7FE06C081E0C81AD108E10880E8F80A3D
:10198000C882D982EA82FB82C701B6019F77DF91C4
:10199000CF91FF90EF90DF90CF90BF90AF909F904E
:1019A0008F9008958F929F92AF92BF92CF92DF92C5
:1019B000EF92FF926091000170910101809102010C
:1019C00090910301611571058105910521F464E28F
:1019D00079ED8BE597E02DE133EF41E050E00E9497
:1019E000D60E49015A019B01AC01A7EAB1E40E945D
:1019F000F50E6B017C01ACEEB4EFA50194010E94E1
:101A0000030FC60ED71EE81EF91EF7FE06C081E0C2
:101A1000C81AD108E10880E8F80AC0920001D09203
:101A20000101E0920201F0920301C701B6019F7724
:101A3000FF90EF90DF90CF90BF90AF909F908F90EE
:101A400008956093000170930101809302019093C7
:101A500003010895B0E0A0E0E0E3FDE00C94090F7D
:101A60005C016B017A016115710519F0FB0191832D
:101A70008083E114F10451F0C7010297839730F09D
:101A800040E030E020E090E072C05E01E501219688
:101A9000F5011081812F90E00E94410E892BA9F75A
:101AA0001D3201F52196F501118101E0E114F104E7
:101AB00009F4DAC0F0E1EF16F10409F082C0103346
:101AC00059F488818F7D883509F076C01981229676
:101AD0000260F0E1EF2EF12C812C912CA12C88E0FA
:101AE000B82E8CC01B3221F4E5012296F50111813C
:101AF00000E0DCCFEAE0EE16F10409F4BBC0F0E14F
:101B0000EF16F10409F06DC0E7CF78E0E72EF12C75
:101B1000812C912CA12C60E1B62E70C03FE9310FD1
:101B20003A3128F439EA332E80C021E09AC0302FB0
:101B30003170C114D10431F0222309F12197F6014B
:101B4000D183C08327FF21C060E070E080E090E88F
:101B5000311104C06FEF7FEF8FEF9FE722E230E09B
:101B60003093790220937802462F372F282F642F45
:101B7000732F822FCDB7DEB7E1E10C94250F01FF63
:101B800004C02297F601D183C083332341F090959E
:101B90008095709561957F4F8F4F9F4FE5CF97FF51
:101BA000E3CF82E290E090937902809378026FEF26
:101BB0007FEF8FEF9FE7D8CF10E3E114F10409F432
:101BC000A4CF28E0E216F10409F4A2CF0CF092CFE2
:101BD000812C912CA12CE0E4BE2E82E0E816F104C9
:101BE00069F060E070E080E090E897010F2C000C55
:101BF000440B550B0E94B40E49015A0120E060E0ED
:101C000070E0CB0127010F2C000C66087708FE015D
:101C100050ED352E310E39E0331540F43FEB310FE6
:101C20003A3108F07BCF49EC342E310E3E141F04BC
:101C30000CF07DCF27FD15C086169706A806B906BD
:101C400078F0A30192010E94A40E630D711D811D05
:101C5000911D61307105810520E8920708F465CF78
:101C60002FEF21961081D3CF103309F42ACF2AE029
:101C7000E22EF12C9CEC892E982CA82C9CE0B92EFD
:101C8000BDCF91110C94910E803219F0895085507E
:101C9000C8F70895BB274A3031F4992322F4BDE2F6
:101CA000909581959F4F0C94780EBB27FA01A62F33
:101CB0006217710581059105330B30FB66F0AA2789
:101CC000660F771F881F991FAA1FA21710F0A21B6B
:101CD00063953850A9F7A05DAA3308F0A95DA193D8
:101CE00036F7B111B1931082CA010C94940EBB2740
:101CF000FB015527AA27880F991FAA1FA41710F0C8
:101D0000A41B83955051B9F7A05DAA3308F0A95DD3
:101D1000A193009779F7B111B1931192CB010C9473
:101D2000940E992788270895DC01FC01672F719193
:101D30007723E1F7329704C07C916D9370836291B1
:101D4000AE17BF07C8F30895DB018F939F930E94DE
:101D5000F50EBF91AF91A29F800D911DA39F900D95
:101D6000B29F900D11240895A1E21A2EAA1BBB1B4D
:101D7000FD010DC0AA1FBB1FEE1FFF1FA217B30757
:101D8000E407F50720F0A21BB30BE40BF50B661F6D
:101D9000771F881F991F1A9469F760957095809531
:101DA00090959B01AC01BD01CF010895052E97FBD5
:101DB0001EF400940E94ED0E57FD07D00E94B40E51
:101DC00007FC03D04EF40C94ED0E509540953095E1
:101DD00021953F4F4F4F5F4F089590958095709597
:101DE00061957F4F8F4F9F4F08950E943F0FA59F92
:101DF000900DB49F900DA49F800D911D1124089506
:101E0000B7FF0C94F50E0E94F50E821B930B0895FC
:101E10002F923F924F925F926F927F928F929F92FA
:101E2000AF92BF92CF92DF92EF92FF920F931F93E8
:101E3000CF93DF93CDB7DEB7CA1BDB0B0FB6F89499
:101E4000DEBF0FBECDBF09942A88398848885F84D9
:101E50006E847D848C849B84AA84B984C884DF804A
:101E6000EE80FD800C811B81AA81B981CE0FD11D2E
:101E70000FB6F894DEBF0FBECDBFED010895A29F4F
:101E8000B001B39FC001A39F700D811D1124911D4E
:101E9000B29F700D811D1124911D0895EE0FFF1F3B
:101EA0000590F491E02D09940F931F93CF93DF9346
:101EB0008230910510F482E090E0E0917C02F09194
:101EC0007D0230E020E0B0E0A0E0309799F42115E9
:101ED000310509F44AC0281B390B24303105D8F5E7
:101EE0008A819B816115710589F1FB01938382834E
:101EF000FE0111C0408151810281138148175907A9
:101F0000E0F04817590799F4109761F012960C9376
:101F1000129713961C933296CF01DF91CF911F91A8
:101F20000F91089500937C0210937D02F4CF211548
:101F3000310551F04217530738F0A901DB019A012E
:101F4000BD01DF01F801C1CFEF01F9CF90937D0210
:101F500080937C02CDCFFE01E20FF31F819391931A
:101F60002250310939832883D7CF20917A023091CA
:101F70007B02232B41F4209106013091070130931D
:101F80007B0220937A0220910401309105012115F2
:101F9000310541F42DB73EB7409108015091090138
:101FA000241B350BE0917A02F0917B02E217F307D4
:101FB000A0F42E1B3F0B2817390778F0AC014E5FB9
:101FC0005F4F2417350748F04E0F5F1F50937B0279
:101FD00040937A02819391939FCFF0E0E0E09CCF11
:101FE000CF93DF930097E9F0FC01329713821282BE
:101FF000A0917C02B0917D02ED0130E020E01097CD
:10200000A1F420813181820F931F20917A023091B7
:102010007B022817390709F061C0F0937B02E09337
:102020007A02DF91CF910895EA01CE17DF07E8F534
:102030004A815B819E0141155105B1F7E901FB839E
:10204000EA8349915991C40FD51FEC17FD0761F43C
:10205000808191810296840F951FE901998388837D
:10206000828193819B838A83F0E0E0E012968D91D8
:102070009C9113970097B9F52D913C911197CD0143
:102080000296820F931F20917A0230917B022817CB
:10209000390739F6309751F510927D0210927C0283
:1020A000B0937B02A0937A02BCCFD383C2834081DA
:1020B0005181840F951FC817D90761F44E5F5F4F98
:1020C00088819981480F591F518340838A819B8160
:1020D000938382832115310509F0B0CFF0937D02FF
:1020E000E0937C029ECFFD01DC01C0CF13821282FF
:1020F000D7CFB0E0A0E0EFE7F0E10C940A0F8C013D
:10210000009751F4CB010E94540F8C01C801CDB748
:10211000DEB7E0E10C94260FFC01E60FF71F9C01EF
:1021200022503109E217F30708F49DC0D901CD917F
:10213000DC911197C617D70798F0C530D10530F359
:10214000CE0104978617970708F3C61BD70B229773
:10215000C193D1936D937C93CF010E94F00FD6CFA2
:102160005B01AC1ABD0A4C018C0E9D1EA0917C0235
:10217000B0917D02512C412CF12CE12C109731F5BE
:1021800080917A0290917B028815990509F05CC0D4
:102190004616570608F058C0809104019091050139
:1021A000009741F48DB79EB7409108015091090105
:1021B000841B950BE817F90708F055C0F0937B02D4
:1021C000E0937A02F90171836083A0CF8D919C9195
:1021D000119712966C90129713967C901397A815EE
:1021E000B90559F56C0142E0C40ED11CCA14DB04D8
:1021F00020F1AC014A195B09DA011296159780F0BB
:102200006282738251834083D9016D937C93E11480
:10221000F10471F0D7011396FC93EE93129776CFE9
:1022200022968C0F9D1FF90191838083F301EFCFDC
:10223000F0937D02E0937C0269CF4816590608F4BA
:102240002C017D01D3019ACFCB010E94540F7C0158
:10225000009749F0AE01B8010E943611C8010E94F2
:10226000F00F870153CF10E000E050CFFB01DC01FD
:1022700002C001900D9241505040D8F70895FB01E3
:10228000DC018D91019080190110D9F3990B08950B
:10229000FB01DC0101900D920020E1F70895AEE012
:1022A000B0E0E5E5F1E10C94160F0D891E898F89E8
:1022B000988D26E02C831A83098397FF02C080E063
:1022C00090E801979E838D83AE01455E5F4F698DD7
:1022D0007A8DCE0101960E947F114D815E8157FD5E
:1022E0000AC02F813885421753070CF49A01020F58
:1022F000131FF80110822E96E4E00C94320FABE02D
:10230000B0E0E5E8F1E10C94080F7C013B018A01A3
:10231000FC0117821682838181FFC8C1CE0101961C
:102320005C01F7019381F30193FD859193FF819106
:102330003F01882309F453C1853239F493FD859117
:1023400093FF81913F01853229F4B70190E00E940B
:102350006F13E7CF912C212C312CFFE1F31538F0CE
:102360008B3211F190F4803209F1833229F137FC7C
:102370003CC020ED280F2A3050F536FE20C08AE000
:10238000989E200D1124922E06C08D3291F080333C
:1023900071F7689430F8F30193FD859193FF819173
:1023A0003F018111DACF21C0689431F8689432F886
:1023B000F2CF689433F8EFCF689434F8ECCFEAE0CA
:1023C0002E9E200D1124222E689435F8E4CF8E32F3
:1023D00029F436FC04C1689436F8DDCF8C3619F444
:1023E000689437F8D8CF8836B1F2982F9F7D9554EE
:1023F0009330E0F08336A1F18337C1F1833509F0E2
:1024000063C02801F2E04F0E511CF801C080D1805A
:10241000692D70E036FC02C06FEF7FEFC6010E94AD
:1024200059134C01689437F882010AC00C5F1F4FA2
:10243000FFE3F98388248394912C6501E89437F8AD
:1024400033FE2DC0522C8114910471F5552009F4EE
:1024500068CFB70180E290E00E946F135A94F6CFE4
:10246000F801808189830E5F1F4FE4CF2801F2E0DD
:102470004F0E511CF801C080D180692D70E036FCF0
:1024800002C06FEF7FEFC6010E9464134C0182010E
:10249000D5CFB70180E290E00E946F132A942814F0
:1024A000190409F0B0F7CECFF60137FC859137FE5D
:1024B00081916F01B70190E00E946F1351105A94FF
:1024C000F1E08F1A9108BFCF843619F0893609F0F0
:1024D00077C0F80137FE6BC0608171818281938182
:1024E0000C5F1F4FF32DFF763F2E97FF09C090958D
:1024F0008095709561957F4F8F4F9F4F689437F807
:102500002AE030E0A5010E949F13C82ECA188C2C27
:10251000432C36FE0CC0E89440F8C91440F434FE55
:1025200005C032FC03C0F32DFE7E4F2E892C44FEE5
:1025300095C0FE01EC0DF11D8081803309F087C04C
:10254000242D297E422E842D8870582E43FC95C060
:1025500040FE8FC09C2C821418F42C0C922C9818DE
:1025600044FE91C0B70180E390E00E946F1342FEE9
:1025700009C088E790E041FE02C088E590E0B7011D
:102580000E946F13C91408F48AC0CA94D12C9FEF1B
:10259000C91AD90ACA0CDB1CF60182916F01B70176
:1025A00090E00E946F13AC14BD04B1F74FCF60816F
:1025B0007181072E000C880B990B0E5F1F4F92CF75
:1025C000D32CE894D4F82AE030E0853739F1232D74
:1025D000297FD22E8F3601F148F48835A9F0F70112
:1025E000868197812B96E2E10C94240F803749F085
:1025F0008837A9F7D4FE02C06894D2F820E130E011
:102600000DC06894D4F8F6CF34FE03C0822F8660E4
:10261000D82E20E132E002C028E030E0F801D7FEF9
:102620000FC060817181828193810C5F1F4FA50172
:102630000E949F13C82ECA183D2CE89437F867CF24
:102640006081718190E080E00E5F1F4FF0CF42FC0F
:1026500002C0839478CF8394839475CF842D867839
:1026600009F471CFF6CFB70180E290E00E946F13BA
:1026700083948214C0F3512C73CF522C58188214B7
:1026800008F46ECFF8CF842D867809F47BCF8BE2E7
:1026900041FE80E247FC8DE2B70190E071CFB701C7
:1026A00080E390E00E946F139A946CCF8FEF9FEFBE
:1026B00099CFFC010590615070400110D8F78095CA
:1026C00090958E0F9F1F0895FC01615070400190FE
:1026D0000110D8F7809590958E0F9F1F08950F9346
:1026E0001F93CF93DF93182F092FEB018B8181FD6F
:1026F00009C01FEF0FEF812F902FDF91CF911F9116
:102700000F91089582FF14C02E813F818C819D819D
:10271000281739073CF4E881F981CF0101969983A4
:10272000888310838E819F8101969F838E83E3CF60
:10273000E885F985812F0995892BA1F3DACFFA0174
:10274000AA27283051F1203181F1E8946F936E7FF0
:102750006E5F7F4F8F4F9F4FAF4FB1E03ED0B4E0E1
:102760003CD0670F781F891F9A1FA11D680F791F22
:102770008A1F911DA11D6A0F711D811D911DA11D33
:1027800020D009F468943F912AE0269F1124301943
:10279000305D3193DEF6CF010895462F4770405DDE
:1027A0004193B3E00FD0C9F7F6CF462F4F70405D8D
:1027B0004A3318F0495D31FD4052419302D0A9F7E8
:1027C000EACFB4E0A6959795879577956795BA95E2
:1027D000C9F700976105710508959B01AC010A2EA8
:1027E00006945795479537952795BA95C9F7620F7F
:1027F000731F841F951FA01D089510E0CDE5D0E044
:1028000004C0FE010E944E0F2196CE35D107C9F7B4
:04281000F894FFCF6A
:102814000100000000007E028000000000004C0166
:10282400B600E30099011401F20006010000000063
:102834006E03B6001102A7003B0072616E646F6DF7
:10284400280050504D3D00726573756C7428002843
:1028540041302900507265737320616E79206B6575
:102864007900796573006E6F6E65005374617274DC
:10287400696E672E2E2E00676574506572636570ED
:0E2884007473002530325800666666650000E9
:00000001FF
